{
  "_format": "hh-sol-artifact-1",
  "contractName": "ZkOauth",
  "sourceName": "contracts/zkOauth.sol",
  "abi": [
    {
      "inputs": [
        {
          "internalType": "address",
          "name": "_verifier",
          "type": "address"
        }
      ],
      "stateMutability": "nonpayable",
      "type": "constructor"
    },
    {
      "anonymous": false,
      "inputs": [
        {
          "indexed": true,
          "internalType": "uint256",
          "name": "groupId",
          "type": "uint256"
        },
        {
          "indexed": false,
          "internalType": "uint8",
          "name": "depth",
          "type": "uint8"
        },
        {
          "indexed": false,
          "internalType": "uint256",
          "name": "zeroValue",
          "type": "uint256"
        }
      ],
      "name": "GroupCreated",
      "type": "event"
    },
    {
      "anonymous": false,
      "inputs": [
        {
          "indexed": false,
          "internalType": "bool",
          "name": "success",
          "type": "bool"
        }
      ],
      "name": "Login",
      "type": "event"
    },
    {
      "anonymous": false,
      "inputs": [
        {
          "indexed": true,
          "internalType": "uint256",
          "name": "groupId",
          "type": "uint256"
        },
        {
          "indexed": false,
          "internalType": "uint256",
          "name": "identityCommitment",
          "type": "uint256"
        },
        {
          "indexed": false,
          "internalType": "uint256",
          "name": "root",
          "type": "uint256"
        }
      ],
      "name": "MemberAdded",
      "type": "event"
    },
    {
      "anonymous": false,
      "inputs": [
        {
          "indexed": true,
          "internalType": "uint256",
          "name": "groupId",
          "type": "uint256"
        },
        {
          "indexed": false,
          "internalType": "uint256",
          "name": "identityCommitment",
          "type": "uint256"
        },
        {
          "indexed": false,
          "internalType": "uint256",
          "name": "root",
          "type": "uint256"
        }
      ],
      "name": "MemberRemoved",
      "type": "event"
    },
    {
      "anonymous": false,
      "inputs": [
        {
          "indexed": false,
          "internalType": "uint256",
          "name": "nullifierHash",
          "type": "uint256"
        }
      ],
      "name": "NullifierHashAdded",
      "type": "event"
    },
    {
      "inputs": [
        {
          "internalType": "uint256",
          "name": "commitmentId",
          "type": "uint256"
        }
      ],
      "name": "addMember",
      "outputs": [],
      "stateMutability": "nonpayable",
      "type": "function"
    },
    {
      "inputs": [
        {
          "internalType": "uint256",
          "name": "groupId",
          "type": "uint256"
        }
      ],
      "name": "getDepth",
      "outputs": [
        {
          "internalType": "uint8",
          "name": "",
          "type": "uint8"
        }
      ],
      "stateMutability": "view",
      "type": "function"
    },
    {
      "inputs": [
        {
          "internalType": "uint256",
          "name": "groupId",
          "type": "uint256"
        }
      ],
      "name": "getNumberOfLeaves",
      "outputs": [
        {
          "internalType": "uint256",
          "name": "",
          "type": "uint256"
        }
      ],
      "stateMutability": "view",
      "type": "function"
    },
    {
      "inputs": [
        {
          "internalType": "uint256",
          "name": "groupId",
          "type": "uint256"
        }
      ],
      "name": "getRoot",
      "outputs": [
        {
          "internalType": "uint256",
          "name": "",
          "type": "uint256"
        }
      ],
      "stateMutability": "view",
      "type": "function"
    },
    {
      "inputs": [],
      "name": "verifier",
      "outputs": [
        {
          "internalType": "contract IVerifier",
          "name": "",
          "type": "address"
        }
      ],
      "stateMutability": "view",
      "type": "function"
    },
    {
      "inputs": [
        {
          "internalType": "bytes32",
          "name": "_signal",
          "type": "bytes32"
        },
        {
          "internalType": "uint256",
          "name": "root",
          "type": "uint256"
        },
        {
          "internalType": "uint256",
          "name": "_nullifierHash",
          "type": "uint256"
        },
        {
          "internalType": "uint256",
          "name": "externalNullifier",
          "type": "uint256"
        },
        {
          "internalType": "uint256[8]",
          "name": "_proof",
          "type": "uint256[8]"
        }
      ],
      "name": "verifyMembership",
      "outputs": [
        {
          "internalType": "bool",
          "name": "",
          "type": "bool"
        }
      ],
      "stateMutability": "nonpayable",
      "type": "function"
    }
  ],
  "bytecode": "0x608060405260006002556014600360006101000a81548160ff021916908360ff1602179055503480156200003257600080fd5b50604051620012f2380380620012f2833981810160405281019062000058919062000289565b80600360016101000a81548173ffffffffffffffffffffffffffffffffffffffff021916908373ffffffffffffffffffffffffffffffffffffffff160217905550620000be600254600360009054906101000a900460ff166000620000c560201b60201c565b5062000510565b7f30644e72e131a029b85045b68181585d2833e84879b9709143e1f593f000000183106200012a576040517f08c379a0000000000000000000000000000000000000000000000000000000008152600401620001219062000370565b60405180910390fd5b60006200013d846200024660201b60201c565b60ff161462000183576040517f08c379a00000000000000000000000000000000000000000000000000000000081526004016200017a906200034e565b60405180910390fd5b60008084815260200190815260200160002073__$4c0484323457fe1a856f46a4759b553fe4$__63b4bdd117909184846040518463ffffffff1660e01b8152600401620001d39392919062000392565b60006040518083038186803b158015620001ec57600080fd5b505af415801562000201573d6000803e3d6000fd5b50505050827fc3082aa494e9088c2c9f0fb62a0b6bd46e6699acb94cfba35be29b95a93f68c8838360405162000239929190620003cf565b60405180910390a2505050565b600080600083815260200190815260200160002060000160009054906101000a900460ff169050919050565b6000815190506200028381620004f6565b92915050565b6000602082840312156200029c57600080fd5b6000620002ac8482850162000272565b91505092915050565b6000620002c4602583620003fc565b9150620002d18262000458565b604082019050919050565b6000620002eb603683620003fc565b9150620002f882620004a7565b604082019050919050565b8082525050565b620003158162000441565b82525050565b620003268162000441565b82525050565b62000337816200044b565b82525050565b62000348816200044b565b82525050565b600060208201905081810360008301526200036981620002b5565b9050919050565b600060208201905081810360008301526200038b81620002dc565b9050919050565b6000606082019050620003a9600083018662000303565b620003b860208301856200033d565b620003c760408301846200031b565b949350505050565b6000604082019050620003e660008301856200032c565b620003f560208301846200030a565b9392505050565b600082825260208201905092915050565b60006200041a8262000421565b9050919050565b600073ffffffffffffffffffffffffffffffffffffffff82169050919050565b6000819050919050565b600060ff82169050919050565b7f53656d6170686f726547726f7570733a2067726f757020616c7265616479206560008201527f7869737473000000000000000000000000000000000000000000000000000000602082015250565b7f53656d6170686f726547726f7570733a2067726f7570206964206d757374206260008201527f65203c20534e41524b5f5343414c41525f4649454c4400000000000000000000602082015250565b62000501816200040d565b81146200050d57600080fd5b50565b610dd280620005206000396000f3fe608060405234801561001057600080fd5b50600436106100625760003560e01c80631089f5ed146100675780632b7ac3f31461008357806375e618c9146100a15780639b24b3b0146100d1578063b9c78c2b14610101578063cdb3641914610131575b600080fd5b610081600480360381019061007c91906107df565b610161565b005b61008b610170565b6040516100989190610acf565b60405180910390f35b6100bb60048036038101906100b691906107df565b610196565b6040516100c89190610b97565b60405180910390f35b6100eb60048036038101906100e691906107df565b6101c2565b6040516100f89190610b53565b60405180910390f35b61011b600480360381019061011691906107df565b6101e1565b6040516101289190610b53565b60405180910390f35b61014b60048036038101906101469190610767565b610200565b6040516101589190610ab4565b60405180910390f35b61016d60025482610277565b50565b600360019054906101000a900473ffffffffffffffffffffffffffffffffffffffff1681565b600080600083815260200190815260200160002060000160009054906101000a900460ff169050919050565b6000806000838152602001908152602001600020600101549050919050565b6000806000838152602001908152602001600020600201549050919050565b60006102328686868686600360019054906101000a900473ffffffffffffffffffffffffffffffffffffffff1661038e565b7f1719e46c03a59d68a049f81f64f0f703f84b7d0727c8c577931c76cd458e622f60016040516102629190610ab4565b60405180910390a16001905095945050505050565b600061028283610196565b60ff1614156102c6576040517f08c379a00000000000000000000000000000000000000000000000000000000081526004016102bd90610b0a565b60405180910390fd5b60008083815260200190815260200160002073__$4c0484323457fe1a856f46a4759b553fe4$__63168703fa9091836040518363ffffffff1660e01b8152600401610312929190610b2a565b60006040518083038186803b15801561032a57600080fd5b505af415801561033e573d6000803e3d6000fd5b50505050600061034d836101c2565b9050827f03fd27265b7dd1f55558bedc22a58fa3b10afb1be776e614bd5a7ba7b94994068383604051610381929190610b6e565b60405180910390a2505050565b6001600085815260200190815260200160002060009054906101000a900460ff16156103ef576040517f08c379a00000000000000000000000000000000000000000000000000000000081526004016103e690610aea565b60405180910390fd5b60006103fa876106e8565b90508173ffffffffffffffffffffffffffffffffffffffff16635fe8c13b60405180604001604052808660006008811061045d577f4e487b7100000000000000000000000000000000000000000000000000000000600052603260045260246000fd5b60200201358152602001866001600881106104a1577f4e487b7100000000000000000000000000000000000000000000000000000000600052603260045260246000fd5b602002013581525060405180604001604052806040518060400160405280896002600881106104f9577f4e487b7100000000000000000000000000000000000000000000000000000000600052603260045260246000fd5b602002013581526020018960036008811061053d577f4e487b7100000000000000000000000000000000000000000000000000000000600052603260045260246000fd5b6020020135815250815260200160405180604001604052808960046008811061058f577f4e487b7100000000000000000000000000000000000000000000000000000000600052603260045260246000fd5b60200201358152602001896005600881106105d3577f4e487b7100000000000000000000000000000000000000000000000000000000600052603260045260246000fd5b6020020135815250815250604051806040016040528088600660088110610623577f4e487b7100000000000000000000000000000000000000000000000000000000600052603260045260246000fd5b6020020135815260200188600760088110610667577f4e487b7100000000000000000000000000000000000000000000000000000000600052603260045260246000fd5b602002013581525060405180608001604052808c81526020018b81526020018781526020018a8152506040518563ffffffff1660e01b81526004016106af9493929190610a6d565b60006040518083038186803b1580156106c757600080fd5b505afa1580156106db573d6000803e3d6000fd5b5050505050505050505050565b60006008826040516020016106fd9190610a52565b6040516020818303038152906040528051906020012060001c901c9050919050565b60008190508260206008028201111561073757600080fd5b92915050565b60008135905061074c81610d6e565b92915050565b60008135905061076181610d85565b92915050565b6000806000806000610180868803121561078057600080fd5b600061078e8882890161073d565b955050602061079f88828901610752565b94505060406107b088828901610752565b93505060606107c188828901610752565b92505060806107d28882890161071f565b9150509295509295909350565b6000602082840312156107f157600080fd5b60006107ff84828501610752565b91505092915050565b6000610814838361088f565b60408301905092915050565b600061082c8383610a16565b60208301905092915050565b61084181610bd0565b61084b8184610c18565b925061085682610bb2565b8060005b8381101561088757815161086e8782610808565b965061087983610bf1565b92505060018101905061085a565b505050505050565b61089881610bdb565b6108a28184610c23565b92506108ad82610bbc565b8060005b838110156108de5781516108c58782610820565b96506108d083610bfe565b9250506001810190506108b1565b505050505050565b6108ef81610bdb565b6108f98184610c2e565b925061090482610bbc565b8060005b8381101561093557815161091c8782610820565b965061092783610bfe565b925050600181019050610908565b505050505050565b61094681610be6565b6109508184610c39565b925061095b82610bc6565b8060005b8381101561098c5781516109738782610820565b965061097e83610c0b565b92505060018101905061095f565b505050505050565b61099d81610c55565b82525050565b6109b46109af82610c61565b610cc6565b82525050565b6109c381610ca2565b82525050565b60006109d6603683610c44565b91506109e182610cd0565b604082019050919050565b60006109f9602583610c44565b9150610a0482610d1f565b604082019050919050565b8082525050565b610a1f81610c8b565b82525050565b610a2e81610c8b565b82525050565b610a3d81610c8b565b82525050565b610a4c81610c95565b82525050565b6000610a5e82846109a3565b60208201915081905092915050565b600061018082019050610a8360008301876108e6565b610a906040830186610838565b610a9d60c08301856108e6565b610aab61010083018461093d565b95945050505050565b6000602082019050610ac96000830184610994565b92915050565b6000602082019050610ae460008301846109ba565b92915050565b60006020820190508181036000830152610b03816109c9565b9050919050565b60006020820190508181036000830152610b23816109ec565b9050919050565b6000604082019050610b3f6000830185610a0f565b610b4c6020830184610a34565b9392505050565b6000602082019050610b686000830184610a25565b92915050565b6000604082019050610b836000830185610a25565b610b906020830184610a25565b9392505050565b6000602082019050610bac6000830184610a43565b92915050565b6000819050919050565b6000819050919050565b6000819050919050565b600060029050919050565b600060029050919050565b600060049050919050565b6000602082019050919050565b6000602082019050919050565b6000602082019050919050565b600081905092915050565b600081905092915050565b600081905092915050565b600081905092915050565b600082825260208201905092915050565b60008115159050919050565b6000819050919050565b600073ffffffffffffffffffffffffffffffffffffffff82169050919050565b6000819050919050565b600060ff82169050919050565b6000610cad82610cb4565b9050919050565b6000610cbf82610c6b565b9050919050565b6000819050919050565b7f53656d6170686f7265436f72653a20796f752063616e6e6f742075736520746860008201527f652073616d65206e756c6c696669657220747769636500000000000000000000602082015250565b7f53656d6170686f726547726f7570733a2067726f757020646f6573206e6f742060008201527f6578697374000000000000000000000000000000000000000000000000000000602082015250565b610d7781610c61565b8114610d8257600080fd5b50565b610d8e81610c8b565b8114610d9957600080fd5b5056fea2646970667358221220128d11841dbfcb6ba83768ccd12dcb4d966d0355930799366d5ed66b8e37e49964736f6c63430008040033",
  "linkReferences": {
    "@zk-kit/incremental-merkle-tree.sol/contracts/IncrementalBinaryTree.sol": {
      "IncrementalBinaryTree": [
        {
          "length": 20,
          "start": 407
        },
        {
          "length": 20,
          "start": 2042
        }
      ]
    }
  },
  "deployedLinkReferences": {
    "@zk-kit/incremental-merkle-tree.sol/contracts/IncrementalBinaryTree.sol": {
      "IncrementalBinaryTree": [
        {
          "length": 20,
          "start": 730
        }
      ]
    }
  }
}