{
  "_format": "hh-sol-artifact-1",
  "contractName": "Greeters",
  "sourceName": "contracts/Greeters.sol",
  "abi": [
    {
      "inputs": [
        {
          "internalType": "uint256",
          "name": "_greeters",
          "type": "uint256"
        },
        {
          "internalType": "address",
          "name": "_verifier",
          "type": "address"
        }
      ],
      "stateMutability": "nonpayable",
      "type": "constructor"
    },
    {
      "anonymous": false,
      "inputs": [
        {
          "indexed": false,
          "internalType": "bytes32",
          "name": "greeting",
          "type": "bytes32"
        }
      ],
      "name": "NewGreeting",
      "type": "event"
    },
    {
      "anonymous": false,
      "inputs": [
        {
          "indexed": false,
          "internalType": "uint256",
          "name": "nullifierHash",
          "type": "uint256"
        }
      ],
      "name": "NullifierHashAdded",
      "type": "event"
    },
    {
      "anonymous": false,
      "inputs": [
        {
          "indexed": true,
          "internalType": "address",
          "name": "previousOwner",
          "type": "address"
        },
        {
          "indexed": true,
          "internalType": "address",
          "name": "newOwner",
          "type": "address"
        }
      ],
      "name": "OwnershipTransferred",
      "type": "event"
    },
    {
      "inputs": [
        {
          "internalType": "bytes32",
          "name": "_greeting",
          "type": "bytes32"
        },
        {
          "internalType": "uint256",
          "name": "_nullifierHash",
          "type": "uint256"
        },
        {
          "internalType": "uint256[8]",
          "name": "_proof",
          "type": "uint256[8]"
        }
      ],
      "name": "greet",
      "outputs": [],
      "stateMutability": "nonpayable",
      "type": "function"
    },
    {
      "inputs": [],
      "name": "greeters",
      "outputs": [
        {
          "internalType": "uint256",
          "name": "",
          "type": "uint256"
        }
      ],
      "stateMutability": "view",
      "type": "function"
    },
    {
      "inputs": [],
      "name": "owner",
      "outputs": [
        {
          "internalType": "address",
          "name": "",
          "type": "address"
        }
      ],
      "stateMutability": "view",
      "type": "function"
    },
    {
      "inputs": [],
      "name": "renounceOwnership",
      "outputs": [],
      "stateMutability": "nonpayable",
      "type": "function"
    },
    {
      "inputs": [
        {
          "internalType": "address",
          "name": "newOwner",
          "type": "address"
        }
      ],
      "name": "transferOwnership",
      "outputs": [],
      "stateMutability": "nonpayable",
      "type": "function"
    },
    {
      "inputs": [],
      "name": "verifier",
      "outputs": [
        {
          "internalType": "contract IVerifier",
          "name": "",
          "type": "address"
        }
      ],
      "stateMutability": "view",
      "type": "function"
    }
  ],
  "bytecode": "0x60806040523480156200001157600080fd5b5060405162001174380380620011748339818101604052810190620000379190620001a3565b620000576200004b620000a760201b60201c565b620000af60201b60201c565b8160028190555080600360006101000a81548173ffffffffffffffffffffffffffffffffffffffff021916908373ffffffffffffffffffffffffffffffffffffffff160217905550505062000256565b600033905090565b6000600160009054906101000a900473ffffffffffffffffffffffffffffffffffffffff16905081600160006101000a81548173ffffffffffffffffffffffffffffffffffffffff021916908373ffffffffffffffffffffffffffffffffffffffff1602179055508173ffffffffffffffffffffffffffffffffffffffff168173ffffffffffffffffffffffffffffffffffffffff167f8be0079c531659141344cd1fd0a4f28419497f9722a3daafe3b4186f6b6457e060405160405180910390a35050565b600081519050620001868162000222565b92915050565b6000815190506200019d816200023c565b92915050565b60008060408385031215620001b757600080fd5b6000620001c7858286016200018c565b9250506020620001da8582860162000175565b9150509250929050565b6000620001f182620001f8565b9050919050565b600073ffffffffffffffffffffffffffffffffffffffff82169050919050565b6000819050919050565b6200022d81620001e4565b81146200023957600080fd5b50565b620002478162000218565b81146200025357600080fd5b50565b610f0e80620002666000396000f3fe608060405234801561001057600080fd5b50600436106100625760003560e01c80632b7ac3f314610067578063715018a61461008557806387139a941461008f5780638da5cb5b146100ad578063f2fde38b146100cb578063f8fc92a3146100e7575b600080fd5b61006f610103565b60405161007c9190610c1f565b60405180910390f35b61008d610129565b005b6100976101b1565b6040516100a49190610c9a565b60405180910390f35b6100b56101b7565b6040516100c29190610ba2565b60405180910390f35b6100e560048036038101906100e091906108b7565b6101e1565b005b61010160048036038101906100fc91906108e0565b6102d9565b005b600360009054906101000a900473ffffffffffffffffffffffffffffffffffffffff1681565b6101316103ce565b73ffffffffffffffffffffffffffffffffffffffff1661014f6101b7565b73ffffffffffffffffffffffffffffffffffffffff16146101a5576040517f08c379a000000000000000000000000000000000000000000000000000000000815260040161019c90610c7a565b60405180910390fd5b6101af60006103d6565b565b60025481565b6000600160009054906101000a900473ffffffffffffffffffffffffffffffffffffffff16905090565b6101e96103ce565b73ffffffffffffffffffffffffffffffffffffffff166102076101b7565b73ffffffffffffffffffffffffffffffffffffffff161461025d576040517f08c379a000000000000000000000000000000000000000000000000000000000815260040161025490610c7a565b60405180910390fd5b600073ffffffffffffffffffffffffffffffffffffffff168173ffffffffffffffffffffffffffffffffffffffff1614156102cd576040517f08c379a00000000000000000000000000000000000000000000000000000000081526004016102c490610c5a565b60405180910390fd5b6102d6816103d6565b50565b6102e16103ce565b73ffffffffffffffffffffffffffffffffffffffff166102ff6101b7565b73ffffffffffffffffffffffffffffffffffffffff1614610355576040517f08c379a000000000000000000000000000000000000000000000000000000000815260040161034c90610c7a565b60405180910390fd5b610389836002548460025485600360009054906101000a900473ffffffffffffffffffffffffffffffffffffffff1661049c565b610392826107f5565b7fdca4fe235351d51f8e3444599c9a1afc6d12397dcdc4fd5df11bb6cfe0eb5a77836040516103c19190610c04565b60405180910390a1505050565b600033905090565b6000600160009054906101000a900473ffffffffffffffffffffffffffffffffffffffff16905081600160006101000a81548173ffffffffffffffffffffffffffffffffffffffff021916908373ffffffffffffffffffffffffffffffffffffffff1602179055508173ffffffffffffffffffffffffffffffffffffffff168173ffffffffffffffffffffffffffffffffffffffff167f8be0079c531659141344cd1fd0a4f28419497f9722a3daafe3b4186f6b6457e060405160405180910390a35050565b60008085815260200190815260200160002060009054906101000a900460ff16156104fc576040517f08c379a00000000000000000000000000000000000000000000000000000000081526004016104f390610c3a565b60405180910390fd5b600061050787610823565b90508173ffffffffffffffffffffffffffffffffffffffff16635fe8c13b60405180604001604052808660006008811061056a577f4e487b7100000000000000000000000000000000000000000000000000000000600052603260045260246000fd5b60200201358152602001866001600881106105ae577f4e487b7100000000000000000000000000000000000000000000000000000000600052603260045260246000fd5b60200201358152506040518060400160405280604051806040016040528089600260088110610606577f4e487b7100000000000000000000000000000000000000000000000000000000600052603260045260246000fd5b602002013581526020018960036008811061064a577f4e487b7100000000000000000000000000000000000000000000000000000000600052603260045260246000fd5b6020020135815250815260200160405180604001604052808960046008811061069c577f4e487b7100000000000000000000000000000000000000000000000000000000600052603260045260246000fd5b60200201358152602001896005600881106106e0577f4e487b7100000000000000000000000000000000000000000000000000000000600052603260045260246000fd5b6020020135815250815250604051806040016040528088600660088110610730577f4e487b7100000000000000000000000000000000000000000000000000000000600052603260045260246000fd5b6020020135815260200188600760088110610774577f4e487b7100000000000000000000000000000000000000000000000000000000600052603260045260246000fd5b602002013581525060405180608001604052808c81526020018b81526020018781526020018a8152506040518563ffffffff1660e01b81526004016107bc9493929190610bbd565b60006040518083038186803b1580156107d457600080fd5b505afa1580156107e8573d6000803e3d6000fd5b5050505050505050505050565b600160008083815260200190815260200160002060006101000a81548160ff02191690831515021790555050565b60006008826040516020016108389190610b87565b6040516020818303038152906040528051906020012060001c901c9050919050565b60008135905061086981610e93565b92915050565b60008190508260206008028201111561088757600080fd5b92915050565b60008135905061089c81610eaa565b92915050565b6000813590506108b181610ec1565b92915050565b6000602082840312156108c957600080fd5b60006108d78482850161085a565b91505092915050565b600080600061014084860312156108f657600080fd5b60006109048682870161088d565b9350506020610915868287016108a2565b92505060406109268682870161086f565b9150509250925092565b600061093c83836109c6565b60408301905092915050565b60006109548383610b69565b60208301905092915050565b61096981610d58565b82525050565b61097881610cd3565b6109828184610d1b565b925061098d82610cb5565b8060005b838110156109be5781516109a58782610930565b96506109b083610cf4565b925050600181019050610991565b505050505050565b6109cf81610cde565b6109d98184610d26565b92506109e482610cbf565b8060005b83811015610a155781516109fc8782610948565b9650610a0783610d01565b9250506001810190506109e8565b505050505050565b610a2681610cde565b610a308184610d31565b9250610a3b82610cbf565b8060005b83811015610a6c578151610a538782610948565b9650610a5e83610d01565b925050600181019050610a3f565b505050505050565b610a7d81610ce9565b610a878184610d3c565b9250610a9282610cc9565b8060005b83811015610ac3578151610aaa8782610948565b9650610ab583610d0e565b925050600181019050610a96565b505050505050565b610ad481610d6a565b82525050565b610aeb610ae682610d6a565b610dc2565b82525050565b610afa81610d9e565b82525050565b6000610b0d603683610d47565b9150610b1882610dcc565b604082019050919050565b6000610b30602683610d47565b9150610b3b82610e1b565b604082019050919050565b6000610b53602083610d47565b9150610b5e82610e6a565b602082019050919050565b610b7281610d94565b82525050565b610b8181610d94565b82525050565b6000610b938284610ada565b60208201915081905092915050565b6000602082019050610bb76000830184610960565b92915050565b600061018082019050610bd36000830187610a1d565b610be0604083018661096f565b610bed60c0830185610a1d565b610bfb610100830184610a74565b95945050505050565b6000602082019050610c196000830184610acb565b92915050565b6000602082019050610c346000830184610af1565b92915050565b60006020820190508181036000830152610c5381610b00565b9050919050565b60006020820190508181036000830152610c7381610b23565b9050919050565b60006020820190508181036000830152610c9381610b46565b9050919050565b6000602082019050610caf6000830184610b78565b92915050565b6000819050919050565b6000819050919050565b6000819050919050565b600060029050919050565b600060029050919050565b600060049050919050565b6000602082019050919050565b6000602082019050919050565b6000602082019050919050565b600081905092915050565b600081905092915050565b600081905092915050565b600081905092915050565b600082825260208201905092915050565b6000610d6382610d74565b9050919050565b6000819050919050565b600073ffffffffffffffffffffffffffffffffffffffff82169050919050565b6000819050919050565b6000610da982610db0565b9050919050565b6000610dbb82610d74565b9050919050565b6000819050919050565b7f53656d6170686f7265436f72653a20796f752063616e6e6f742075736520746860008201527f652073616d65206e756c6c696669657220747769636500000000000000000000602082015250565b7f4f776e61626c653a206e6577206f776e657220697320746865207a65726f206160008201527f6464726573730000000000000000000000000000000000000000000000000000602082015250565b7f4f776e61626c653a2063616c6c6572206973206e6f7420746865206f776e6572600082015250565b610e9c81610d58565b8114610ea757600080fd5b50565b610eb381610d6a565b8114610ebe57600080fd5b50565b610eca81610d94565b8114610ed557600080fd5b5056fea2646970667358221220b02ae3d26a29a18a34b9c19f1cf16cc3e3670d09a119b37cce4e83a6b936aee464736f6c63430008040033",
  "linkReferences": {},
  "deployedLinkReferences": {}
}